:020000040800F2
:100000008006002091010008990100089B0100086A
:100010009D0100089F010008A101000800000000E8
:10002000000000000000000000000000A301000824
:10003000A501000800000000A7010008290500082C
:10004000AB010008AB010008AB010008AB010008E0
:10005000AB010008AB010008AB010008AB010008D0
:10006000AB010008AB010008AB010008AB010008C0
:10007000AB010008AB010008AB010008AB010008B0
:10008000AB010008AB010008AB010008AB010008A0
:10009000AB010008AB010008AB010008AB01000890
:1000A000AB010008AB010008AB010008AB01000880
:1000B000AB010008AB01000800000000AB01000824
:1000C000AB0100080000000000000000AB010008C8
:1000D00000000000AB010008AB01000800000000B8
:1000E000AB010008AB010008AB01000800F002F80A
:1000F00000F03FF80AA090E8000C82448344AAF183
:100100000107DA4501D100F034F8AFF2090EBAE880
:100110000F0013F0010F18BFFB1A43F0010318473B
:10012000A0070000C0070000103A24BF78C878C1BB
:10013000FAD8520724BF30C830C144BF04680C60ED
:10014000704700000023002400250026103A28BF35
:1001500078C1FBD8520728BF30C148BF0B60704739
:10016000642900F07D80002070471FB51FBD10B5C9
:1001700010BD00F02AF91146FFF7F7FF00F00EFB63
:1001800000F048F903B4FFF7F2FF03BC00F050F9A8
:100190000948804709480047FEE7FEE7FEE7FEE71B
:1001A000FEE7FEE7FEE7FEE7FEE7FEE70448054957
:1001B000054A064B7047000039050008ED000008AD
:1001C00080000020800600208002002080020020A5
:1001D0000FB41CB5074B06AA7B44694600900598EE
:1001E00000F0DBF80020694600F0EAF81CBC5DF87E
:1001F00014FB0000E50100002DE9F0410E46044625
:10020000002020622046E168884730B3252805D0C9
:10021000D4E901219047206A401CF2E7E1682046BA
:1002200000278847050018D0A5F14100192802D8F9
:1002300020354FF400673246294620462760FFF7F5
:100240008FFF40B1012804D0F61D26F007060836BE
:10025000D8E7361DD6E72846DAE7206ABDE8F08100
:100260002DE9F0410646002410687529314616A58F
:1002700010D0AFF30080002802DA404213A507E057
:1002800031688A0701D512A502E0490704D511A5F6
:10029000012401E0AFF3008000210A2206F12407C7
:1002A00009E0B0FBF2FCB0FBF2F302FB1C003030C3
:1002B00078541846491C0028F3D123462A46304674
:1002C000BDE8F04100F00BB8000000002D00000078
:1002D0002B000000200000007047704770472DE998
:1002E000F0470D4699469246044600F124080168FD
:1002F000880604D5E06921F01001216000E00120AA
:10030000A84201DD471B00E00027A1697A1902EB32
:100310000900081AA0612078C00602D42046AFF375
:100320000080002608E0D4E901211AF80600904771
:10033000206A401C761C20624E45F4DB2078C00603
:100340000AD52046AFF3008006E0D4E90121302031
:100350009047206A401C2062381EA7F10107F4DC98
:1003600007E0D4E9012118F805009047206A401CF5
:100370002062281EA5F10105F3DC2046AFF30080C2
:100380002078000602D50220BDE8F0870120FBE7B7
:1003900001694A1C02610878704700B58FB0CDE949
:1003A00001310021059105497944CDE90310114639
:1003B0006846FFF721FF0FB000BD0000E5FFFFFF1B
:1003C0000A6802F8010B0A607047754600F02CF8C5
:1003D000AE4605006946534620F00700854618B032
:1003E00020B5FFF7E3FEBDE820404FF000064FF0D8
:1003F00000074FF000084FF0000B21F00701AC465A
:10040000ACE8C009ACE8C009ACE8C009ACE8C00978
:100410008D46704710B50446AFF300802046BDE816
:100420001040FFF7AFBE00000048704720000020DA
:1004300001491820ABBEFEE726000200704710B548
:1004400000F002F810BD00000CB5002001900090F3
:100450003348006840F480303149086000BF3048BC
:10046000006800F4003000900198401C0190009852
:1004700018B90198B0F5A06FF1D12948006800F4CF
:10048000003010B10120009001E0002000900098A1
:10049000012843D12348006840F01000214908603A
:1004A0000846006820F0030008600846006840F035
:1004B000020008601A4840681949486008464068C8
:1004C00048600846406840F48060486008464068DC
:1004D00020F47C1048600846406840F4E81048600A
:1004E0000846006840F08070086000BF0C48006853
:1004F00000F000700028F9D00948406820F003009F
:10050000074948600846406840F00200486000BF64
:100510000348406800F00C000828F9D10CBD000029
:10052000001002400020024002480068401C0149BF
:10053000086070470800002010B51348006840F0BC
:1005400001001149086008464068104908400E49FA
:100550004860084600680E4908400B490860084694
:10056000006820F4802008600846406820F4FE00FF
:1005700048604FF41F008860FFF761FF4FF0006094
:100580000449086010BD0000001002400000FFF8A0
:10059000FFFFF6FE08ED00E01D48806940F40070A2
:1005A0001B4988611B48006820F002001949086057
:1005B0000846006820F4006008600846006820F4DF
:1005C0008010086013480830006840F008001149A6
:1005D000083108600846006820F0100008600846EE
:1005E000006840F02000086000200A4924310860BB
:1005F000012008492C3108600648006840F480005A
:10060000044908600846006840F00100086070472F
:10061000001002400824014010B51048006840F264
:10062000E731B0FBF1F04FF0E021486148170F21AE
:10063000002804DB0A07130E094A135406E00A07D0
:10064000140E084A00F00F031B1FD45400BF0020F3
:100650004FF0E02188610620086110BD0C000020E9
:1006600000E400E018ED00E04FF0E021096941F0FE
:1006700001014FF0E02211610021084A116000BF22
:10068000064909688142FBD34FF0E021096921F056
:1006900001014FF0E02211617047000008000020C6
:1006A00010B50420094908600120FFF7DDFF042090
:1006B0000649091F08600120FFF7D6FF04200349FF
:1006C00008600120FFF7D0FF10BD000014080140B2
:1006D00070B505460C46012D06D1641E04F180015B
:1006E000C8B200F02BF807E0022D05D1641E04F11A
:1006F000C001C8B200F022F870BD10B5022000F0B1
:100700001DF80220FFF7B0FF282000F017F80120A5
:10071000FFF7AAFF0C2000F011F80120FFF7A4FF5B
:10072000012000F00BF80120FFF79EFF062000F0EB
:1007300005F80120FFF798FF10BD000010B5044632
:1007400008480460012008490860FFF7A9FF200756
:10075000040E04480460012003490860FFF7A0FF6D
:1007600010BD00000C0C01401408014010B50446F7
:1007700001200849086008480460FFF791FF20073E
:10078000040E01200349086003480460FFF788FF56
:1007900010BD0000100801400C0C0140FFF73CFFA9
:1007A0003748806940F0040035498861084680690F
:1007B00040F0080088613348006800203149086033
:1007C00040F2022008603048006800202E4908608E
:1007D0002E48086000202C490C3108603220FFF7B9
:1007E00043FF0120274914310860042008600024D9
:1007F00006E00320FFF7A2FF0520FFF735FF641C8A
:10080000022CF6DB0320FFF799FF0A20FFF72CFFED
:10081000FFF773FF01210846FFF75AFF0A20FFF791
:1008200023FFFFF7B9FE29E00120FFF787FF1848F3
:10083000006840F001001649086000BF14480838FD
:10084000006800F002000028F8D011484430006829
:1008500010490880084602880FA11148FFF7B8FC2C
:100860000F4800F01FF80A480838006820F002001E
:100870000749083908603220FFF7F6FED4E7000088
:100880000010024000080140000C0140000022223C
:1008900008240140060000202564202020000000DC
:1008A0000000002070B50446002504E0605DFFF7FD
:1008B0005DFF681CC5B2605D0028F7D170BD000007
:1008C000E0080008000000202000000028010008C7
:1008D0000009000820000020600600004401000814
:1008E00000000000000000000000000000A24A0418
:1008F00000000000000000000102030406070809D0
:04000005080001915D
:00000001FF
